{
  "contractName": "Twitter",
  "abi": [
    {
      "constant": true,
      "inputs": [
        {
          "name": "",
          "type": "uint256"
        }
      ],
      "name": "tweetList",
      "outputs": [
        {
          "name": "id",
          "type": "uint256"
        },
        {
          "name": "text",
          "type": "string"
        }
      ],
      "payable": false,
      "stateMutability": "view",
      "type": "function",
      "signature": "0x532a9051"
    },
    {
      "inputs": [],
      "payable": false,
      "stateMutability": "nonpayable",
      "type": "constructor",
      "signature": "constructor"
    },
    {
      "anonymous": false,
      "inputs": [
        {
          "indexed": false,
          "name": "tweetId",
          "type": "uint256"
        },
        {
          "indexed": false,
          "name": "text",
          "type": "string"
        }
      ],
      "name": "TweetSent",
      "type": "event",
      "signature": "0xa8898a25aaf0fd13451cbbd9b4eab831b7096e86a9f3b25930ae606adf8ad788"
    },
    {
      "constant": false,
      "inputs": [
        {
          "name": "_text",
          "type": "string"
        }
      ],
      "name": "SendTweet",
      "outputs": [],
      "payable": false,
      "stateMutability": "nonpayable",
      "type": "function",
      "signature": "0xb528f9f2"
    }
  ],
  "bytecode": "0x608060405234801561001057600080fd5b5060016000815480929190600101919050555061002b6100d7565b604080519081016040528060015481526020016040805190810160405280600481526020017f74657374000000000000000000000000000000000000000000000000000000008152508152509050600081908060018154018082558091505090600182039060005260206000209060020201600090919290919091506000820151816000015560208201518160010190805190602001906100cd9291906100f1565b5050505050610196565b604080519081016040528060008152602001606081525090565b828054600181600116156101000203166002900490600052602060002090601f016020900481019282601f1061013257805160ff1916838001178555610160565b82800160010185558215610160579182015b8281111561015f578251825591602001919060010190610144565b5b50905061016d9190610171565b5090565b61019391905b8082111561018f576000816000905550600101610177565b5090565b90565b6104bf806101a56000396000f3fe60806040526004361061004c576000357c0100000000000000000000000000000000000000000000000000000000900463ffffffff168063532a905114610051578063b528f9f21461010c575b600080fd5b34801561005d57600080fd5b5061008a6004803603602081101561007457600080fd5b81019080803590602001909291905050506101d4565b6040518083815260200180602001828103825283818151815260200191508051906020019080838360005b838110156100d05780820151818401526020810190506100b5565b50505050905090810190601f1680156100fd5780820380516001836020036101000a031916815260200191505b50935050505060405180910390f35b34801561011857600080fd5b506101d26004803603602081101561012f57600080fd5b810190808035906020019064010000000081111561014c57600080fd5b82018360208201111561015e57600080fd5b8035906020019184600183028401116401000000008311171561018057600080fd5b91908080601f016020809104026020016040519081016040528093929190818152602001838380828437600081840152601f19601f82011690508083019250505050505050919291929050505061029f565b005b6000818154811015156101e357fe5b9060005260206000209060020201600091509050806000015490806001018054600181600116156101000203166002900480601f0160208091040260200160405190810160405280929190818152602001828054600181600116156101000203166002900480156102955780601f1061026a57610100808354040283529160200191610295565b820191906000526020600020905b81548152906001019060200180831161027857829003601f168201915b5050505050905082565b6001600081548092919060010191905055506102b96103d4565b60408051908101604052806001548152602001838152509050600081908060018154018082558091505090600182039060005260206000209060020201600090919290919091506000820151816000015560208201518160010190805190602001906103269291906103ee565b505050507fa8898a25aaf0fd13451cbbd9b4eab831b7096e86a9f3b25930ae606adf8ad788600154836040518083815260200180602001828103825283818151815260200191508051906020019080838360005b8381101561039557808201518184015260208101905061037a565b50505050905090810190601f1680156103c25780820380516001836020036101000a031916815260200191505b50935050505060405180910390a15050565b604080519081016040528060008152602001606081525090565b828054600181600116156101000203166002900490600052602060002090601f016020900481019282601f1061042f57805160ff191683800117855561045d565b8280016001018555821561045d579182015b8281111561045c578251825591602001919060010190610441565b5b50905061046a919061046e565b5090565b61049091905b8082111561048c576000816000905550600101610474565b5090565b9056fea165627a7a723058200aa285dc3b44db85b2eee66941afb4cce5d6bff0d53568fe2dc0f84240ce15c20029",
  "source": "pragma solidity ^0.5.0;\n\ncontract Twitter {\n\n    struct Tweet {\n        uint id;\n        //uint userId;\n        string text;\n    }\n\n    Tweet[] public tweetList;\n   // mapping (uint=>Tweet) tweetMap;\n    uint tweetIdCounter;\n    event TweetSent(\n        uint tweetId, \n       // uint userId, \n        string text\n    );\n    \n    constructor () public {\n        tweetIdCounter++;\n        Tweet memory tweet = Tweet(tweetIdCounter, \"test\");\n        tweetList.push(tweet);\n    }\n\n    function SendTweet(string memory _text) public {\n        tweetIdCounter++;\n        Tweet memory tweet = Tweet(tweetIdCounter, _text);\n        tweetList.push(tweet);\n        //tweetMap[_userId] = tweet;\n        emit TweetSent(tweetIdCounter,  _text);\n    }\n\n    //function GetTweets() public view {\n\n    //}\n}",
  "sourcePath": "/Users/loomx-siddhant/playground/tw/contracts/Twitter.sol",
  "compiler": {
    "name": "solc",
    "version": "0.5.0+commit.1d4f565a.Emscripten.clang"
  },
  "schemaVersion": "3.0.1",
  "updatedAt": "2019-03-12T12:32:48.238Z",
  "devdoc": {
    "methods": {}
  },
  "userdoc": {
    "methods": {}
  }
}